{
  "_format": "hh-sol-artifact-1",
  "contractName": "SupacoinNFT",
  "sourceName": "contracts/SupacoinNFT.sol",
  "abi": [
    {
      "inputs": [
        {
          "internalType": "string",
          "name": "name",
          "type": "string"
        },
        {
          "internalType": "string",
          "name": "symbol",
          "type": "string"
        },
        {
          "internalType": "string",
          "name": "_tempURI",
          "type": "string"
        },
        {
          "internalType": "uint256",
          "name": "maxTokens",
          "type": "uint256"
        }
      ],
      "stateMutability": "payable",
      "type": "constructor"
    },
    {
      "anonymous": false,
      "inputs": [
        {
          "indexed": true,
          "internalType": "address",
          "name": "owner",
          "type": "address"
        },
        {
          "indexed": true,
          "internalType": "address",
          "name": "approved",
          "type": "address"
        },
        {
          "indexed": true,
          "internalType": "uint256",
          "name": "tokenId",
          "type": "uint256"
        }
      ],
      "name": "Approval",
      "type": "event"
    },
    {
      "anonymous": false,
      "inputs": [
        {
          "indexed": true,
          "internalType": "address",
          "name": "owner",
          "type": "address"
        },
        {
          "indexed": true,
          "internalType": "address",
          "name": "operator",
          "type": "address"
        },
        {
          "indexed": false,
          "internalType": "bool",
          "name": "approved",
          "type": "bool"
        }
      ],
      "name": "ApprovalForAll",
      "type": "event"
    },
    {
      "anonymous": false,
      "inputs": [
        {
          "indexed": false,
          "internalType": "address",
          "name": "sender",
          "type": "address"
        },
        {
          "indexed": false,
          "internalType": "uint256",
          "name": "tokenId",
          "type": "uint256"
        }
      ],
      "name": "NewSupacoinNFTMinted",
      "type": "event"
    },
    {
      "anonymous": false,
      "inputs": [
        {
          "indexed": true,
          "internalType": "address",
          "name": "previousOwner",
          "type": "address"
        },
        {
          "indexed": true,
          "internalType": "address",
          "name": "newOwner",
          "type": "address"
        }
      ],
      "name": "OwnershipTransferred",
      "type": "event"
    },
    {
      "anonymous": false,
      "inputs": [
        {
          "indexed": true,
          "internalType": "address",
          "name": "from",
          "type": "address"
        },
        {
          "indexed": true,
          "internalType": "address",
          "name": "to",
          "type": "address"
        },
        {
          "indexed": true,
          "internalType": "uint256",
          "name": "tokenId",
          "type": "uint256"
        }
      ],
      "name": "Transfer",
      "type": "event"
    },
    {
      "inputs": [
        {
          "internalType": "address",
          "name": "to",
          "type": "address"
        },
        {
          "internalType": "uint256",
          "name": "tokenId",
          "type": "uint256"
        }
      ],
      "name": "approve",
      "outputs": [],
      "stateMutability": "nonpayable",
      "type": "function"
    },
    {
      "inputs": [],
      "name": "availableTokenCount",
      "outputs": [
        {
          "internalType": "uint256",
          "name": "",
          "type": "uint256"
        }
      ],
      "stateMutability": "view",
      "type": "function"
    },
    {
      "inputs": [
        {
          "internalType": "address",
          "name": "owner",
          "type": "address"
        }
      ],
      "name": "balanceOf",
      "outputs": [
        {
          "internalType": "uint256",
          "name": "",
          "type": "uint256"
        }
      ],
      "stateMutability": "view",
      "type": "function"
    },
    {
      "inputs": [],
      "name": "currentSupply",
      "outputs": [
        {
          "internalType": "uint256",
          "name": "",
          "type": "uint256"
        }
      ],
      "stateMutability": "view",
      "type": "function"
    },
    {
      "inputs": [
        {
          "internalType": "uint256",
          "name": "tokenId",
          "type": "uint256"
        }
      ],
      "name": "getApproved",
      "outputs": [
        {
          "internalType": "address",
          "name": "",
          "type": "address"
        }
      ],
      "stateMutability": "view",
      "type": "function"
    },
    {
      "inputs": [],
      "name": "getPreviousToken",
      "outputs": [
        {
          "internalType": "uint256",
          "name": "",
          "type": "uint256"
        }
      ],
      "stateMutability": "view",
      "type": "function"
    },
    {
      "inputs": [],
      "name": "getTokenCount",
      "outputs": [
        {
          "internalType": "uint256",
          "name": "",
          "type": "uint256"
        }
      ],
      "stateMutability": "view",
      "type": "function"
    },
    {
      "inputs": [
        {
          "internalType": "address",
          "name": "owner",
          "type": "address"
        },
        {
          "internalType": "address",
          "name": "operator",
          "type": "address"
        }
      ],
      "name": "isApprovedForAll",
      "outputs": [
        {
          "internalType": "bool",
          "name": "",
          "type": "bool"
        }
      ],
      "stateMutability": "view",
      "type": "function"
    },
    {
      "inputs": [],
      "name": "mint",
      "outputs": [],
      "stateMutability": "payable",
      "type": "function"
    },
    {
      "inputs": [],
      "name": "name",
      "outputs": [
        {
          "internalType": "string",
          "name": "",
          "type": "string"
        }
      ],
      "stateMutability": "view",
      "type": "function"
    },
    {
      "inputs": [],
      "name": "owner",
      "outputs": [
        {
          "internalType": "address",
          "name": "",
          "type": "address"
        }
      ],
      "stateMutability": "view",
      "type": "function"
    },
    {
      "inputs": [
        {
          "internalType": "uint256",
          "name": "tokenId",
          "type": "uint256"
        }
      ],
      "name": "ownerOf",
      "outputs": [
        {
          "internalType": "address",
          "name": "",
          "type": "address"
        }
      ],
      "stateMutability": "view",
      "type": "function"
    },
    {
      "inputs": [],
      "name": "prevTokenID",
      "outputs": [
        {
          "internalType": "uint256",
          "name": "",
          "type": "uint256"
        }
      ],
      "stateMutability": "view",
      "type": "function"
    },
    {
      "inputs": [],
      "name": "renounceOwnership",
      "outputs": [],
      "stateMutability": "nonpayable",
      "type": "function"
    },
    {
      "inputs": [
        {
          "internalType": "address",
          "name": "from",
          "type": "address"
        },
        {
          "internalType": "address",
          "name": "to",
          "type": "address"
        },
        {
          "internalType": "uint256",
          "name": "tokenId",
          "type": "uint256"
        }
      ],
      "name": "safeTransferFrom",
      "outputs": [],
      "stateMutability": "nonpayable",
      "type": "function"
    },
    {
      "inputs": [
        {
          "internalType": "address",
          "name": "from",
          "type": "address"
        },
        {
          "internalType": "address",
          "name": "to",
          "type": "address"
        },
        {
          "internalType": "uint256",
          "name": "tokenId",
          "type": "uint256"
        },
        {
          "internalType": "bytes",
          "name": "_data",
          "type": "bytes"
        }
      ],
      "name": "safeTransferFrom",
      "outputs": [],
      "stateMutability": "nonpayable",
      "type": "function"
    },
    {
      "inputs": [
        {
          "internalType": "address",
          "name": "operator",
          "type": "address"
        },
        {
          "internalType": "bool",
          "name": "approved",
          "type": "bool"
        }
      ],
      "name": "setApprovalForAll",
      "outputs": [],
      "stateMutability": "nonpayable",
      "type": "function"
    },
    {
      "inputs": [
        {
          "internalType": "bytes4",
          "name": "interfaceId",
          "type": "bytes4"
        }
      ],
      "name": "supportsInterface",
      "outputs": [
        {
          "internalType": "bool",
          "name": "",
          "type": "bool"
        }
      ],
      "stateMutability": "view",
      "type": "function"
    },
    {
      "inputs": [],
      "name": "symbol",
      "outputs": [
        {
          "internalType": "string",
          "name": "",
          "type": "string"
        }
      ],
      "stateMutability": "view",
      "type": "function"
    },
    {
      "inputs": [],
      "name": "tokenCount",
      "outputs": [
        {
          "internalType": "uint256",
          "name": "",
          "type": "uint256"
        }
      ],
      "stateMutability": "view",
      "type": "function"
    },
    {
      "inputs": [
        {
          "internalType": "uint256",
          "name": "tokenId",
          "type": "uint256"
        }
      ],
      "name": "tokenURI",
      "outputs": [
        {
          "internalType": "string",
          "name": "",
          "type": "string"
        }
      ],
      "stateMutability": "view",
      "type": "function"
    },
    {
      "inputs": [],
      "name": "totalSupply",
      "outputs": [
        {
          "internalType": "uint256",
          "name": "",
          "type": "uint256"
        }
      ],
      "stateMutability": "view",
      "type": "function"
    },
    {
      "inputs": [
        {
          "internalType": "address",
          "name": "from",
          "type": "address"
        },
        {
          "internalType": "address",
          "name": "to",
          "type": "address"
        },
        {
          "internalType": "uint256",
          "name": "tokenId",
          "type": "uint256"
        }
      ],
      "name": "transferFrom",
      "outputs": [],
      "stateMutability": "nonpayable",
      "type": "function"
    },
    {
      "inputs": [
        {
          "internalType": "address",
          "name": "newOwner",
          "type": "address"
        }
      ],
      "name": "transferOwnership",
      "outputs": [],
      "stateMutability": "nonpayable",
      "type": "function"
    },
    {
      "inputs": [],
      "name": "withdraw",
      "outputs": [],
      "stateMutability": "payable",
      "type": "function"
    }
  ],
  "bytecode": "0x60806040526000600c55604051620059533803806200595383398181016040528101906200002e9190620010df565b80600181868681600090805190602001906200004c92919062000f63565b5080600190805190602001906200006592919062000f63565b505050620000886200007c620000f360201b60201c565b620000fb60201b60201c565b806009819055505080600b81905550505081600d9080519060200190620000b192919062000f63565b506000600190505b60058111620000e857620000d2620001c160201b60201c565b8080620000df90620019bb565b915050620000b9565b505050505062001dc4565b600033905090565b6000600760009054906101000a900473ffffffffffffffffffffffffffffffffffffffff16905081600760006101000a81548173ffffffffffffffffffffffffffffffffffffffff021916908373ffffffffffffffffffffffffffffffffffffffff1602179055508173ffffffffffffffffffffffffffffffffffffffff168173ffffffffffffffffffffffffffffffffffffffff167f8be0079c531659141344cd1fd0a4f28419497f9722a3daafe3b4186f6b6457e060405160405180910390a35050565b6000651977420dc0009050620001dc6200049c60201b60201c565b6001620001ee620004a660201b60201c565b620001fa9190620017cb565b11156200023e576040517f08c379a00000000000000000000000000000000000000000000000000000000081526004016200023590620016d0565b60405180910390fd5b6000600162000252620004c460201b60201c565b6200025e919062001860565b1015620002a2576040517f08c379a0000000000000000000000000000000000000000000000000000000008152600401620002999062001648565b60405180910390fd5b3373ffffffffffffffffffffffffffffffffffffffff163273ffffffffffffffffffffffffffffffffffffffff161462000313576040517f08c379a00000000000000000000000000000000000000000000000000000000081526004016200030a9062001626565b60405180910390fd5b62000323620004f760201b60201c565b73ffffffffffffffffffffffffffffffffffffffff163373ffffffffffffffffffffffffffffffffffffffff1614620003b457803373ffffffffffffffffffffffffffffffffffffffff16311015620003b3576040517f08c379a0000000000000000000000000000000000000000000000000000000008152600401620003aa906200168c565b60405180910390fd5b5b6000620003c66200052160201b60201c565b905080600e819055506000600d620003e983620006e960201b6200142c1760201c565b604051602001620003fc92919062001515565b60405160208183030381529060405290506200041f3383620008ab60201b60201c565b620004318282620008d160201b60201c565b6200045c6200044b83620006e960201b6200142c1760201c565b6200095260201b620015d91760201c565b7f8fa53186a3712675fe7a143e8a8adcbe79575c6cb92ef817f321e3b9aa0d06d333836040516200048f92919062001591565b60405180910390a1505050565b6000600954905090565b6000620004bf6008620009f560201b620016721760201c565b905090565b6000620004d6620004a660201b60201c565b620004e66200049c60201b60201c565b620004f2919062001860565b905090565b6000600760009054906101000a900473ffffffffffffffffffffffffffffffffffffffff16905090565b60008062000534620004c460201b60201c565b1162000577576040517f08c379a00000000000000000000000000000000000000000000000000000000081526004016200056e906200166a565b60405180910390fd5b600062000589620004a660201b60201c565b620005996200049c60201b60201c565b620005a5919062001860565b90506000813341444542604051602001620005c5959493929190620014ac565b6040516020818303038152906040528051906020012060001c620005ea919062001a4f565b9050600080600a600084815260200190815260200160002054141562000613578190506200062a565b600a60008381526020019081526020016000205490505b6000600a60006001866200063f919062001860565b8152602001908152602001600020541415620006815760018362000664919062001860565b600a600084815260200190815260200160002081905550620006bb565b600a600060018562000694919062001860565b815260200190815260200160002054600a6000848152602001908152602001600020819055505b620006d062000a0360201b620016801760201c565b50600b5481620006e19190620017cb565b935050505090565b6060600082141562000733576040518060400160405280600181526020017f30000000000000000000000000000000000000000000000000000000000000008152509050620008a6565b600082905060005b600082146200076b5780806200075190620019bb565b915050600a8262000763919062001828565b91506200073b565b60008167ffffffffffffffff811115620007ae577f4e487b7100000000000000000000000000000000000000000000000000000000600052604160045260246000fd5b6040519080825280601f01601f191660200182016040528015620007e15781602001600182028036833780820191505090505b5090505b600085146200089f57600182620007fd919062001860565b9150600a856200080e919062001a4f565b60306200081c9190620017cb565b60f81b81838151811062000859577f4e487b7100000000000000000000000000000000000000000000000000000000600052603260045260246000fd5b60200101907effffffffffffffffffffffffffffffffffffffffffffffffffffffffffffff1916908160001a905350600a8562000897919062001828565b9450620007e5565b8093505050505b919050565b620008cd82826040518060200160405280600081525062000a9260201b60201c565b5050565b620008e28262000b0060201b60201c565b62000924576040517f08c379a00000000000000000000000000000000000000000000000000000000081526004016200091b90620016ae565b60405180910390fd5b806006600084815260200190815260200160002090805190602001906200094d92919062000f63565b505050565b620009f281604051602401620009699190620015be565b6040516020818303038152906040527f41304fac000000000000000000000000000000000000000000000000000000007bffffffffffffffffffffffffffffffffffffffffffffffffffffffff19166020820180517bffffffffffffffffffffffffffffffffffffffffffffffffffffffff838183161783525050505062000b6c60201b60201c565b50565b600081600001549050919050565b60008062000a16620004c460201b60201c565b1162000a59576040517f08c379a000000000000000000000000000000000000000000000000000000000815260040162000a50906200166a565b60405180910390fd5b600062000a726008620009f560201b620016721760201c565b905062000a8b600862000b9560201b620016ea1760201c565b8091505090565b62000aa4838362000bab60201b60201c565b62000ab9600084848462000d9160201b60201c565b62000afb576040517f08c379a000000000000000000000000000000000000000000000000000000000815260040162000af290620015e2565b60405180910390fd5b505050565b60008073ffffffffffffffffffffffffffffffffffffffff166002600084815260200190815260200160002060009054906101000a900473ffffffffffffffffffffffffffffffffffffffff1673ffffffffffffffffffffffffffffffffffffffff1614159050919050565b60008151905060006a636f6e736f6c652e6c6f679050602083016000808483855afa5050505050565b6001816000016000828254019250508190555050565b600073ffffffffffffffffffffffffffffffffffffffff168273ffffffffffffffffffffffffffffffffffffffff16141562000c1e576040517f08c379a000000000000000000000000000000000000000000000000000000000815260040162000c1590620016f2565b60405180910390fd5b62000c2f8162000b0060201b60201c565b1562000c72576040517f08c379a000000000000000000000000000000000000000000000000000000000815260040162000c699062001604565b60405180910390fd5b62000c866000838362000f4b60201b60201c565b6001600360008473ffffffffffffffffffffffffffffffffffffffff1673ffffffffffffffffffffffffffffffffffffffff168152602001908152602001600020600082825462000cd89190620017cb565b92505081905550816002600083815260200190815260200160002060006101000a81548173ffffffffffffffffffffffffffffffffffffffff021916908373ffffffffffffffffffffffffffffffffffffffff160217905550808273ffffffffffffffffffffffffffffffffffffffff16600073ffffffffffffffffffffffffffffffffffffffff167fddf252ad1be2c89b69c2b068fc378daa952ba7f163c4a11628f55a4df523b3ef60405160405180910390a45050565b600062000dbf8473ffffffffffffffffffffffffffffffffffffffff1662000f5060201b620017001760201c565b1562000f3e578373ffffffffffffffffffffffffffffffffffffffff1663150b7a0262000df1620000f360201b60201c565b8786866040518563ffffffff1660e01b815260040162000e1594939291906200153d565b602060405180830381600087803b15801562000e3057600080fd5b505af192505050801562000e6457506040513d601f19601f8201168201806040525081019062000e619190620010b3565b60015b62000eed573d806000811462000e97576040519150601f19603f3d011682016040523d82523d6000602084013e62000e9c565b606091505b5060008151141562000ee5576040517f08c379a000000000000000000000000000000000000000000000000000000000815260040162000edc90620015e2565b60405180910390fd5b805181602001fd5b63150b7a0260e01b7bffffffffffffffffffffffffffffffffffffffffffffffffffffffff1916817bffffffffffffffffffffffffffffffffffffffffffffffffffffffff19161491505062000f43565b600190505b949350505050565b505050565b600080823b905060008111915050919050565b82805462000f71906200194f565b90600052602060002090601f01602090048101928262000f95576000855562000fe1565b82601f1062000fb057805160ff191683800117855562000fe1565b8280016001018555821562000fe1579182015b8281111562000fe057825182559160200191906001019062000fc3565b5b50905062000ff0919062000ff4565b5090565b5b808211156200100f57600081600090555060010162000ff5565b5090565b60006200102a62001024846200173d565b62001714565b9050828152602081018484840111156200104357600080fd5b6200105084828562001919565b509392505050565b600081519050620010698162001d90565b92915050565b600082601f8301126200108157600080fd5b81516200109384826020860162001013565b91505092915050565b600081519050620010ad8162001daa565b92915050565b600060208284031215620010c657600080fd5b6000620010d68482850162001058565b91505092915050565b60008060008060808587031215620010f657600080fd5b600085015167ffffffffffffffff8111156200111157600080fd5b6200111f878288016200106f565b945050602085015167ffffffffffffffff8111156200113d57600080fd5b6200114b878288016200106f565b935050604085015167ffffffffffffffff8111156200116957600080fd5b62001177878288016200106f565b92505060606200118a878288016200109c565b91505092959194509250565b620011ab620011a582620018af565b62001a1d565b82525050565b620011bc816200189b565b82525050565b620011d7620011d1826200189b565b62001a09565b82525050565b6000620011ea8262001788565b620011f681856200179e565b93506200120881856020860162001919565b620012138162001b43565b840191505092915050565b60006200122b8262001793565b620012378185620017af565b93506200124981856020860162001919565b620012548162001b43565b840191505092915050565b60006200126c8262001793565b620012788185620017c0565b93506200128a81856020860162001919565b80840191505092915050565b60008154620012a5816200194f565b620012b18186620017c0565b94506001821660008114620012cf5760018114620012e15762001318565b60ff1983168652818601935062001318565b620012ec8562001773565b60005b838110156200131057815481890152600182019150602081019050620012ef565b838801955050505b50505092915050565b600062001330603283620017af565b91506200133d8262001b61565b604082019050919050565b600062001357601c83620017af565b9150620013648262001bb0565b602082019050919050565b60006200137e602583620017af565b91506200138b8262001bd9565b604082019050919050565b6000620013a5602d83620017af565b9150620013b28262001c28565b604082019050919050565b6000620013cc601883620017af565b9150620013d98262001c77565b602082019050919050565b6000620013f3601383620017af565b9150620014008262001ca0565b602082019050919050565b60006200141a602e83620017af565b9150620014278262001cc9565b604082019050919050565b600062001441602783620017af565b91506200144e8262001d18565b604082019050919050565b600062001468602083620017af565b9150620014758262001d67565b602082019050919050565b6200148b816200190f565b82525050565b620014a6620014a0826200190f565b62001a45565b82525050565b6000620014ba8288620011c2565b601482019150620014cc828762001196565b601482019150620014de828662001491565b602082019150620014f0828562001491565b60208201915062001502828462001491565b6020820191508190509695505050505050565b600062001523828562001296565b91506200153182846200125f565b91508190509392505050565b6000608082019050620015546000830187620011b1565b620015636020830186620011b1565b62001572604083018562001480565b8181036060830152620015868184620011dd565b905095945050505050565b6000604082019050620015a86000830185620011b1565b620015b7602083018462001480565b9392505050565b60006020820190508181036000830152620015da81846200121e565b905092915050565b60006020820190508181036000830152620015fd8162001321565b9050919050565b600060208201905081810360008301526200161f8162001348565b9050919050565b6000602082019050818103600083015262001641816200136f565b9050919050565b60006020820190508181036000830152620016638162001396565b9050919050565b600060208201905081810360008301526200168581620013bd565b9050919050565b60006020820190508181036000830152620016a781620013e4565b9050919050565b60006020820190508181036000830152620016c9816200140b565b9050919050565b60006020820190508181036000830152620016eb8162001432565b9050919050565b600060208201905081810360008301526200170d8162001459565b9050919050565b60006200172062001733565b90506200172e828262001985565b919050565b6000604051905090565b600067ffffffffffffffff8211156200175b576200175a62001b14565b5b620017668262001b43565b9050602081019050919050565b60008190508160005260206000209050919050565b600081519050919050565b600081519050919050565b600082825260208201905092915050565b600082825260208201905092915050565b600081905092915050565b6000620017d8826200190f565b9150620017e5836200190f565b9250827fffffffffffffffffffffffffffffffffffffffffffffffffffffffffffffffff038211156200181d576200181c62001a87565b5b828201905092915050565b600062001835826200190f565b915062001842836200190f565b92508262001855576200185462001ab6565b5b828204905092915050565b60006200186d826200190f565b91506200187a836200190f565b92508282101562001890576200188f62001a87565b5b828203905092915050565b6000620018a882620018ef565b9050919050565b6000620018bc82620018ef565b9050919050565b60007fffffffff0000000000000000000000000000000000000000000000000000000082169050919050565b600073ffffffffffffffffffffffffffffffffffffffff82169050919050565b6000819050919050565b60005b83811015620019395780820151818401526020810190506200191c565b8381111562001949576000848401525b50505050565b600060028204905060018216806200196857607f821691505b602082108114156200197f576200197e62001ae5565b5b50919050565b620019908262001b43565b810181811067ffffffffffffffff82111715620019b257620019b162001b14565b5b80604052505050565b6000620019c8826200190f565b91507fffffffffffffffffffffffffffffffffffffffffffffffffffffffffffffffff821415620019fe57620019fd62001a87565b5b600182019050919050565b600062001a168262001a31565b9050919050565b600062001a2a8262001a31565b9050919050565b600062001a3e8262001b54565b9050919050565b6000819050919050565b600062001a5c826200190f565b915062001a69836200190f565b92508262001a7c5762001a7b62001ab6565b5b828206905092915050565b7f4e487b7100000000000000000000000000000000000000000000000000000000600052601160045260246000fd5b7f4e487b7100000000000000000000000000000000000000000000000000000000600052601260045260246000fd5b7f4e487b7100000000000000000000000000000000000000000000000000000000600052602260045260246000fd5b7f4e487b7100000000000000000000000000000000000000000000000000000000600052604160045260246000fd5b6000601f19601f8301169050919050565b60008160601b9050919050565b7f4552433732313a207472616e7366657220746f206e6f6e20455243373231526560008201527f63656976657220696d706c656d656e7465720000000000000000000000000000602082015250565b7f4552433732313a20746f6b656e20616c7265616479206d696e74656400000000600082015250565b7f43414e4e4f54204d494e54205448524f554748204120435553544f4d20434f4e60008201527f5452414354000000000000000000000000000000000000000000000000000000602082015250565b7f594f552043414e2754204d494e54204d4f5245205448414e204156414c41424c60008201527f4520544f4b454e20434f554e5400000000000000000000000000000000000000602082015250565b7f4e6f206d6f726520746f6b656e7320617661696c61626c650000000000000000600082015250565b7f496e73756666696369656e7420466f756e647300000000000000000000000000600082015250565b7f45524337323155524953746f726167653a2055524920736574206f66206e6f6e60008201527f6578697374656e7420746f6b656e000000000000000000000000000000000000602082015250565b7f594f552043414e2754204d494e54204d4f5245205448414e204d4158494d554d60008201527f20535550504c5900000000000000000000000000000000000000000000000000602082015250565b7f4552433732313a206d696e7420746f20746865207a65726f2061646472657373600082015250565b62001d9b81620018c3565b811462001da757600080fd5b50565b62001db5816200190f565b811462001dc157600080fd5b50565b613b7f8062001dd46000396000f3fe6080604052600436106101665760003560e01c806370a08231116100d15780639f181b5e1161008a578063c87b56dd11610064578063c87b56dd146104da578063e14ca35314610517578063e985e9c514610542578063f2fde38b1461057f57610166565b80639f181b5e1461045d578063a22cb46514610488578063b88d4fde146104b157610166565b806370a082311461035d578063715018a61461039a578063771282f6146103b157806378a89567146103dc5780638da5cb5b1461040757806395d89b411461043257610166565b806323b872dd1161012357806323b872dd1461026e5780632625f1c3146102975780633ccfd60b146102c257806342842e0e146102cc5780635e54a930146102f55780636352211e1461032057610166565b806301ffc9a71461016b57806306fdde03146101a8578063081812fc146101d3578063095ea7b3146102105780631249c58b1461023957806318160ddd14610243575b600080fd5b34801561017757600080fd5b50610192600480360381019061018d91906126ed565b6105a8565b60405161019f9190612d58565b60405180910390f35b3480156101b457600080fd5b506101bd61068a565b6040516101ca9190612d73565b60405180910390f35b3480156101df57600080fd5b506101fa60048036038101906101f5919061273f565b61071c565b6040516102079190612cc8565b60405180910390f35b34801561021c57600080fd5b50610237600480360381019061023291906126b1565b6107a1565b005b6102416108b9565b005b34801561024f57600080fd5b50610258610b20565b6040516102659190613075565b60405180910390f35b34801561027a57600080fd5b50610295600480360381019061029091906125ab565b610b2a565b005b3480156102a357600080fd5b506102ac610b8a565b6040516102b99190613075565b60405180910390f35b6102ca610b90565b005b3480156102d857600080fd5b506102f360048036038101906102ee91906125ab565b610c4c565b005b34801561030157600080fd5b5061030a610c6c565b6040516103179190613075565b60405180910390f35b34801561032c57600080fd5b506103476004803603810190610342919061273f565b610c76565b6040516103549190612cc8565b60405180910390f35b34801561036957600080fd5b50610384600480360381019061037f9190612546565b610d28565b6040516103919190613075565b60405180910390f35b3480156103a657600080fd5b506103af610de0565b005b3480156103bd57600080fd5b506103c6610e68565b6040516103d39190613075565b60405180910390f35b3480156103e857600080fd5b506103f1610e6e565b6040516103fe9190613075565b60405180910390f35b34801561041357600080fd5b5061041c610e7d565b6040516104299190612cc8565b60405180910390f35b34801561043e57600080fd5b50610447610ea7565b6040516104549190612d73565b60405180910390f35b34801561046957600080fd5b50610472610f39565b60405161047f9190613075565b60405180910390f35b34801561049457600080fd5b506104af60048036038101906104aa9190612675565b610f4a565b005b3480156104bd57600080fd5b506104d860048036038101906104d391906125fa565b6110cb565b005b3480156104e657600080fd5b5061050160048036038101906104fc919061273f565b61112d565b60405161050e9190612d73565b60405180910390f35b34801561052357600080fd5b5061052c61127f565b6040516105399190613075565b60405180910390f35b34801561054e57600080fd5b506105696004803603810190610564919061256f565b6112a0565b6040516105769190612d58565b60405180910390f35b34801561058b57600080fd5b506105a660048036038101906105a19190612546565b611334565b005b60007f80ac58cd000000000000000000000000000000000000000000000000000000007bffffffffffffffffffffffffffffffffffffffffffffffffffffffff1916827bffffffffffffffffffffffffffffffffffffffffffffffffffffffff1916148061067357507f5b5e139f000000000000000000000000000000000000000000000000000000007bffffffffffffffffffffffffffffffffffffffffffffffffffffffff1916827bffffffffffffffffffffffffffffffffffffffffffffffffffffffff1916145b80610683575061068282611713565b5b9050919050565b606060008054610699906132c1565b80601f01602080910402602001604051908101604052809291908181526020018280546106c5906132c1565b80156107125780601f106106e757610100808354040283529160200191610712565b820191906000526020600020905b8154815290600101906020018083116106f557829003601f168201915b5050505050905090565b60006107278261177d565b610766576040517f08c379a000000000000000000000000000000000000000000000000000000000815260040161075d90612fb5565b60405180910390fd5b6004600083815260200190815260200160002060009054906101000a900473ffffffffffffffffffffffffffffffffffffffff169050919050565b60006107ac82610c76565b90508073ffffffffffffffffffffffffffffffffffffffff168373ffffffffffffffffffffffffffffffffffffffff16141561081d576040517f08c379a000000000000000000000000000000000000000000000000000000000815260040161081490613035565b60405180910390fd5b8073ffffffffffffffffffffffffffffffffffffffff1661083c6117e9565b73ffffffffffffffffffffffffffffffffffffffff16148061086b575061086a816108656117e9565b6112a0565b5b6108aa576040517f08c379a00000000000000000000000000000000000000000000000000000000081526004016108a190612ed5565b60405180910390fd5b6108b483836117f1565b505050565b6000651977420dc00090506108cc610b20565b60016108d6610f39565b6108e0919061313e565b1115610921576040517f08c379a000000000000000000000000000000000000000000000000000000000815260040161091890612f55565b60405180910390fd5b6000600161092d61127f565b61093791906131c5565b1015610978576040517f08c379a000000000000000000000000000000000000000000000000000000000815260040161096f90612e15565b60405180910390fd5b3373ffffffffffffffffffffffffffffffffffffffff163273ffffffffffffffffffffffffffffffffffffffff16146109e6576040517f08c379a00000000000000000000000000000000000000000000000000000000081526004016109dd90612df5565b60405180910390fd5b6109ee610e7d565b73ffffffffffffffffffffffffffffffffffffffff163373ffffffffffffffffffffffffffffffffffffffff1614610a7b57803373ffffffffffffffffffffffffffffffffffffffff16311015610a7a576040517f08c379a0000000000000000000000000000000000000000000000000000000008152600401610a7190612eb5565b60405180910390fd5b5b6000610a856118aa565b905080600e819055506000600d610a9b8361142c565b604051602001610aac929190612ca4565b6040516020818303038152906040529050610ac73383611a38565b610ad18282611a56565b610ae2610add8361142c565b6115d9565b7f8fa53186a3712675fe7a143e8a8adcbe79575c6cb92ef817f321e3b9aa0d06d33383604051610b13929190612d2f565b60405180910390a1505050565b6000600954905090565b610b3b610b356117e9565b82611aca565b610b7a576040517f08c379a0000000000000000000000000000000000000000000000000000000008152600401610b7190613055565b60405180910390fd5b610b85838383611ba8565b505050565b600e5481565b610b986117e9565b73ffffffffffffffffffffffffffffffffffffffff16610bb6610e7d565b73ffffffffffffffffffffffffffffffffffffffff1614610c0c576040517f08c379a0000000000000000000000000000000000000000000000000000000008152600401610c0390612fd5565b60405180910390fd5b3373ffffffffffffffffffffffffffffffffffffffff166108fc479081150290604051600060405180830381858888f19350505050610c4a57600080fd5b565b610c67838383604051806020016040528060008152506110cb565b505050565b6000600e54905090565b6000806002600084815260200190815260200160002060009054906101000a900473ffffffffffffffffffffffffffffffffffffffff169050600073ffffffffffffffffffffffffffffffffffffffff168173ffffffffffffffffffffffffffffffffffffffff161415610d1f576040517f08c379a0000000000000000000000000000000000000000000000000000000008152600401610d1690612f15565b60405180910390fd5b80915050919050565b60008073ffffffffffffffffffffffffffffffffffffffff168273ffffffffffffffffffffffffffffffffffffffff161415610d99576040517f08c379a0000000000000000000000000000000000000000000000000000000008152600401610d9090612ef5565b60405180910390fd5b600360008373ffffffffffffffffffffffffffffffffffffffff1673ffffffffffffffffffffffffffffffffffffffff168152602001908152602001600020549050919050565b610de86117e9565b73ffffffffffffffffffffffffffffffffffffffff16610e06610e7d565b73ffffffffffffffffffffffffffffffffffffffff1614610e5c576040517f08c379a0000000000000000000000000000000000000000000000000000000008152600401610e5390612fd5565b60405180910390fd5b610e666000611e04565b565b600c5481565b6000610e78610f39565b905090565b6000600760009054906101000a900473ffffffffffffffffffffffffffffffffffffffff16905090565b606060018054610eb6906132c1565b80601f0160208091040260200160405190810160405280929190818152602001828054610ee2906132c1565b8015610f2f5780601f10610f0457610100808354040283529160200191610f2f565b820191906000526020600020905b815481529060010190602001808311610f1257829003601f168201915b5050505050905090565b6000610f456008611672565b905090565b610f526117e9565b73ffffffffffffffffffffffffffffffffffffffff168273ffffffffffffffffffffffffffffffffffffffff161415610fc0576040517f08c379a0000000000000000000000000000000000000000000000000000000008152600401610fb790612e55565b60405180910390fd5b8060056000610fcd6117e9565b73ffffffffffffffffffffffffffffffffffffffff1673ffffffffffffffffffffffffffffffffffffffff16815260200190815260200160002060008473ffffffffffffffffffffffffffffffffffffffff1673ffffffffffffffffffffffffffffffffffffffff16815260200190815260200160002060006101000a81548160ff0219169083151502179055508173ffffffffffffffffffffffffffffffffffffffff1661107a6117e9565b73ffffffffffffffffffffffffffffffffffffffff167f17307eab39ab6107e8899845ad3d59bd9653f200f220920489ca2b5937696c31836040516110bf9190612d58565b60405180910390a35050565b6110dc6110d66117e9565b83611aca565b61111b576040517f08c379a000000000000000000000000000000000000000000000000000000000815260040161111290613055565b60405180910390fd5b61112784848484611eca565b50505050565b60606111388261177d565b611177576040517f08c379a000000000000000000000000000000000000000000000000000000000815260040161116e90612f95565b60405180910390fd5b6000600660008481526020019081526020016000208054611197906132c1565b80601f01602080910402602001604051908101604052809291908181526020018280546111c3906132c1565b80156112105780601f106111e557610100808354040283529160200191611210565b820191906000526020600020905b8154815290600101906020018083116111f357829003601f168201915b505050505090506000611221611f26565b905060008151141561123757819250505061127a565b60008251111561126c578082604051602001611254929190612c80565b6040516020818303038152906040529250505061127a565b61127584611f3d565b925050505b919050565b6000611289610f39565b611291610b20565b61129b91906131c5565b905090565b6000600560008473ffffffffffffffffffffffffffffffffffffffff1673ffffffffffffffffffffffffffffffffffffffff16815260200190815260200160002060008373ffffffffffffffffffffffffffffffffffffffff1673ffffffffffffffffffffffffffffffffffffffff16815260200190815260200160002060009054906101000a900460ff16905092915050565b61133c6117e9565b73ffffffffffffffffffffffffffffffffffffffff1661135a610e7d565b73ffffffffffffffffffffffffffffffffffffffff16146113b0576040517f08c379a00000000000000000000000000000000000000000000000000000000081526004016113a790612fd5565b60405180910390fd5b600073ffffffffffffffffffffffffffffffffffffffff168173ffffffffffffffffffffffffffffffffffffffff161415611420576040517f08c379a000000000000000000000000000000000000000000000000000000000815260040161141790612db5565b60405180910390fd5b61142981611e04565b50565b60606000821415611474576040518060400160405280600181526020017f300000000000000000000000000000000000000000000000000000000000000081525090506115d4565b600082905060005b600082146114a657808061148f90613324565b915050600a8261149f9190613194565b915061147c565b60008167ffffffffffffffff8111156114e8577f4e487b7100000000000000000000000000000000000000000000000000000000600052604160045260246000fd5b6040519080825280601f01601f19166020018201604052801561151a5781602001600182028036833780820191505090505b5090505b600085146115cd5760018261153391906131c5565b9150600a8561154291906133ad565b603061154e919061313e565b60f81b81838151811061158a577f4e487b7100000000000000000000000000000000000000000000000000000000600052603260045260246000fd5b60200101907effffffffffffffffffffffffffffffffffffffffffffffffffffffffffffff1916908160001a905350600a856115c69190613194565b945061151e565b8093505050505b919050565b61166f816040516024016115ed9190612d73565b6040516020818303038152906040527f41304fac000000000000000000000000000000000000000000000000000000007bffffffffffffffffffffffffffffffffffffffffffffffffffffffff19166020820180517bffffffffffffffffffffffffffffffffffffffffffffffffffffffff8381831617835250505050611fe4565b50565b600081600001549050919050565b60008061168b61127f565b116116cb576040517f08c379a00000000000000000000000000000000000000000000000000000000081526004016116c290612e75565b60405180910390fd5b60006116d76008611672565b90506116e360086116ea565b8091505090565b6001816000016000828254019250508190555050565b600080823b905060008111915050919050565b60007f01ffc9a7000000000000000000000000000000000000000000000000000000007bffffffffffffffffffffffffffffffffffffffffffffffffffffffff1916827bffffffffffffffffffffffffffffffffffffffffffffffffffffffff1916149050919050565b60008073ffffffffffffffffffffffffffffffffffffffff166002600084815260200190815260200160002060009054906101000a900473ffffffffffffffffffffffffffffffffffffffff1673ffffffffffffffffffffffffffffffffffffffff1614159050919050565b600033905090565b816004600083815260200190815260200160002060006101000a81548173ffffffffffffffffffffffffffffffffffffffff021916908373ffffffffffffffffffffffffffffffffffffffff160217905550808273ffffffffffffffffffffffffffffffffffffffff1661186483610c76565b73ffffffffffffffffffffffffffffffffffffffff167f8c5be1e5ebec7d5bd14f71427d1e84f3dd0314c0f7b2291e5b200ac8c7c3b92560405160405180910390a45050565b6000806118b561127f565b116118f5576040517f08c379a00000000000000000000000000000000000000000000000000000000081526004016118ec90612e75565b60405180910390fd5b60006118ff610f39565b611907610b20565b61191191906131c5565b9050600081334144454260405160200161192f959493929190612c21565b6040516020818303038152906040528051906020012060001c61195291906133ad565b9050600080600a600084815260200190815260200160002054141561197957819050611990565b600a60008381526020019081526020016000205490505b6000600a60006001866119a391906131c5565b81526020019081526020016000205414156119e1576001836119c591906131c5565b600a600084815260200190815260200160002081905550611a19565b600a60006001856119f291906131c5565b815260200190815260200160002054600a6000848152602001908152602001600020819055505b611a21611680565b50600b5481611a30919061313e565b935050505090565b611a5282826040518060200160405280600081525061200d565b5050565b611a5f8261177d565b611a9e576040517f08c379a0000000000000000000000000000000000000000000000000000000008152600401611a9590612f35565b60405180910390fd5b80600660008481526020019081526020016000209080519060200190611ac59291906123d2565b505050565b6000611ad58261177d565b611b14576040517f08c379a0000000000000000000000000000000000000000000000000000000008152600401611b0b90612e95565b60405180910390fd5b6000611b1f83610c76565b90508073ffffffffffffffffffffffffffffffffffffffff168473ffffffffffffffffffffffffffffffffffffffff161480611b8e57508373ffffffffffffffffffffffffffffffffffffffff16611b768461071c565b73ffffffffffffffffffffffffffffffffffffffff16145b80611b9f5750611b9e81856112a0565b5b91505092915050565b8273ffffffffffffffffffffffffffffffffffffffff16611bc882610c76565b73ffffffffffffffffffffffffffffffffffffffff1614611c1e576040517f08c379a0000000000000000000000000000000000000000000000000000000008152600401611c1590612ff5565b60405180910390fd5b600073ffffffffffffffffffffffffffffffffffffffff168273ffffffffffffffffffffffffffffffffffffffff161415611c8e576040517f08c379a0000000000000000000000000000000000000000000000000000000008152600401611c8590612e35565b60405180910390fd5b611c99838383612068565b611ca46000826117f1565b6001600360008573ffffffffffffffffffffffffffffffffffffffff1673ffffffffffffffffffffffffffffffffffffffff1681526020019081526020016000206000828254611cf491906131c5565b925050819055506001600360008473ffffffffffffffffffffffffffffffffffffffff1673ffffffffffffffffffffffffffffffffffffffff1681526020019081526020016000206000828254611d4b919061313e565b92505081905550816002600083815260200190815260200160002060006101000a81548173ffffffffffffffffffffffffffffffffffffffff021916908373ffffffffffffffffffffffffffffffffffffffff160217905550808273ffffffffffffffffffffffffffffffffffffffff168473ffffffffffffffffffffffffffffffffffffffff167fddf252ad1be2c89b69c2b068fc378daa952ba7f163c4a11628f55a4df523b3ef60405160405180910390a4505050565b6000600760009054906101000a900473ffffffffffffffffffffffffffffffffffffffff16905081600760006101000a81548173ffffffffffffffffffffffffffffffffffffffff021916908373ffffffffffffffffffffffffffffffffffffffff1602179055508173ffffffffffffffffffffffffffffffffffffffff168173ffffffffffffffffffffffffffffffffffffffff167f8be0079c531659141344cd1fd0a4f28419497f9722a3daafe3b4186f6b6457e060405160405180910390a35050565b611ed5848484611ba8565b611ee18484848461206d565b611f20576040517f08c379a0000000000000000000000000000000000000000000000000000000008152600401611f1790612d95565b60405180910390fd5b50505050565b606060405180602001604052806000815250905090565b6060611f488261177d565b611f87576040517f08c379a0000000000000000000000000000000000000000000000000000000008152600401611f7e90613015565b60405180910390fd5b6000611f91611f26565b90506000815111611fb15760405180602001604052806000815250611fdc565b80611fbb8461142c565b604051602001611fcc929190612c80565b6040516020818303038152906040525b915050919050565b60008151905060006a636f6e736f6c652e6c6f679050602083016000808483855afa5050505050565b6120178383612204565b612024600084848461206d565b612063576040517f08c379a000000000000000000000000000000000000000000000000000000000815260040161205a90612d95565b60405180910390fd5b505050565b505050565b600061208e8473ffffffffffffffffffffffffffffffffffffffff16611700565b156121f7578373ffffffffffffffffffffffffffffffffffffffff1663150b7a026120b76117e9565b8786866040518563ffffffff1660e01b81526004016120d99493929190612ce3565b602060405180830381600087803b1580156120f357600080fd5b505af192505050801561212457506040513d601f19601f820116820180604052508101906121219190612716565b60015b6121a7573d8060008114612154576040519150601f19603f3d011682016040523d82523d6000602084013e612159565b606091505b5060008151141561219f576040517f08c379a000000000000000000000000000000000000000000000000000000000815260040161219690612d95565b60405180910390fd5b805181602001fd5b63150b7a0260e01b7bffffffffffffffffffffffffffffffffffffffffffffffffffffffff1916817bffffffffffffffffffffffffffffffffffffffffffffffffffffffff1916149150506121fc565b600190505b949350505050565b600073ffffffffffffffffffffffffffffffffffffffff168273ffffffffffffffffffffffffffffffffffffffff161415612274576040517f08c379a000000000000000000000000000000000000000000000000000000000815260040161226b90612f75565b60405180910390fd5b61227d8161177d565b156122bd576040517f08c379a00000000000000000000000000000000000000000000000000000000081526004016122b490612dd5565b60405180910390fd5b6122c960008383612068565b6001600360008473ffffffffffffffffffffffffffffffffffffffff1673ffffffffffffffffffffffffffffffffffffffff1681526020019081526020016000206000828254612319919061313e565b92505081905550816002600083815260200190815260200160002060006101000a81548173ffffffffffffffffffffffffffffffffffffffff021916908373ffffffffffffffffffffffffffffffffffffffff160217905550808273ffffffffffffffffffffffffffffffffffffffff16600073ffffffffffffffffffffffffffffffffffffffff167fddf252ad1be2c89b69c2b068fc378daa952ba7f163c4a11628f55a4df523b3ef60405160405180910390a45050565b8280546123de906132c1565b90600052602060002090601f0160209004810192826124005760008555612447565b82601f1061241957805160ff1916838001178555612447565b82800160010185558215612447579182015b8281111561244657825182559160200191906001019061242b565b5b5090506124549190612458565b5090565b5b80821115612471576000816000905550600101612459565b5090565b6000612488612483846130b5565b613090565b9050828152602081018484840111156124a057600080fd5b6124ab84828561327f565b509392505050565b6000813590506124c281613aed565b92915050565b6000813590506124d781613b04565b92915050565b6000813590506124ec81613b1b565b92915050565b60008151905061250181613b1b565b92915050565b600082601f83011261251857600080fd5b8135612528848260208601612475565b91505092915050565b60008135905061254081613b32565b92915050565b60006020828403121561255857600080fd5b6000612566848285016124b3565b91505092915050565b6000806040838503121561258257600080fd5b6000612590858286016124b3565b92505060206125a1858286016124b3565b9150509250929050565b6000806000606084860312156125c057600080fd5b60006125ce868287016124b3565b93505060206125df868287016124b3565b92505060406125f086828701612531565b9150509250925092565b6000806000806080858703121561261057600080fd5b600061261e878288016124b3565b945050602061262f878288016124b3565b935050604061264087828801612531565b925050606085013567ffffffffffffffff81111561265d57600080fd5b61266987828801612507565b91505092959194509250565b6000806040838503121561268857600080fd5b6000612696858286016124b3565b92505060206126a7858286016124c8565b9150509250929050565b600080604083850312156126c457600080fd5b60006126d2858286016124b3565b92505060206126e385828601612531565b9150509250929050565b6000602082840312156126ff57600080fd5b600061270d848285016124dd565b91505092915050565b60006020828403121561272857600080fd5b6000612736848285016124f2565b91505092915050565b60006020828403121561275157600080fd5b600061275f84828501612531565b91505092915050565b6127796127748261320b565b61337f565b82525050565b612788816131f9565b82525050565b61279f61279a826131f9565b61336d565b82525050565b6127ae8161321d565b82525050565b60006127bf826130fb565b6127c98185613111565b93506127d981856020860161328e565b6127e28161349a565b840191505092915050565b60006127f882613106565b6128028185613122565b935061281281856020860161328e565b61281b8161349a565b840191505092915050565b600061283182613106565b61283b8185613133565b935061284b81856020860161328e565b80840191505092915050565b60008154612864816132c1565b61286e8186613133565b94506001821660008114612889576001811461289a576128cd565b60ff198316865281860193506128cd565b6128a3856130e6565b60005b838110156128c5578154818901526001820191506020810190506128a6565b838801955050505b50505092915050565b60006128e3603283613122565b91506128ee826134b8565b604082019050919050565b6000612906602683613122565b915061291182613507565b604082019050919050565b6000612929601c83613122565b915061293482613556565b602082019050919050565b600061294c602583613122565b91506129578261357f565b604082019050919050565b600061296f602d83613122565b915061297a826135ce565b604082019050919050565b6000612992602483613122565b915061299d8261361d565b604082019050919050565b60006129b5601983613122565b91506129c08261366c565b602082019050919050565b60006129d8601883613122565b91506129e382613695565b602082019050919050565b60006129fb602c83613122565b9150612a06826136be565b604082019050919050565b6000612a1e601383613122565b9150612a298261370d565b602082019050919050565b6000612a41603883613122565b9150612a4c82613736565b604082019050919050565b6000612a64602a83613122565b9150612a6f82613785565b604082019050919050565b6000612a87602983613122565b9150612a92826137d4565b604082019050919050565b6000612aaa602e83613122565b9150612ab582613823565b604082019050919050565b6000612acd602783613122565b9150612ad882613872565b604082019050919050565b6000612af0602083613122565b9150612afb826138c1565b602082019050919050565b6000612b13603183613122565b9150612b1e826138ea565b604082019050919050565b6000612b36602c83613122565b9150612b4182613939565b604082019050919050565b6000612b59602083613122565b9150612b6482613988565b602082019050919050565b6000612b7c602983613122565b9150612b87826139b1565b604082019050919050565b6000612b9f602f83613122565b9150612baa82613a00565b604082019050919050565b6000612bc2602183613122565b9150612bcd82613a4f565b604082019050919050565b6000612be5603183613122565b9150612bf082613a9e565b604082019050919050565b612c0481613275565b82525050565b612c1b612c1682613275565b6133a3565b82525050565b6000612c2d828861278e565b601482019150612c3d8287612768565b601482019150612c4d8286612c0a565b602082019150612c5d8285612c0a565b602082019150612c6d8284612c0a565b6020820191508190509695505050505050565b6000612c8c8285612826565b9150612c988284612826565b91508190509392505050565b6000612cb08285612857565b9150612cbc8284612826565b91508190509392505050565b6000602082019050612cdd600083018461277f565b92915050565b6000608082019050612cf8600083018761277f565b612d05602083018661277f565b612d126040830185612bfb565b8181036060830152612d2481846127b4565b905095945050505050565b6000604082019050612d44600083018561277f565b612d516020830184612bfb565b9392505050565b6000602082019050612d6d60008301846127a5565b92915050565b60006020820190508181036000830152612d8d81846127ed565b905092915050565b60006020820190508181036000830152612dae816128d6565b9050919050565b60006020820190508181036000830152612dce816128f9565b9050919050565b60006020820190508181036000830152612dee8161291c565b9050919050565b60006020820190508181036000830152612e0e8161293f565b9050919050565b60006020820190508181036000830152612e2e81612962565b9050919050565b60006020820190508181036000830152612e4e81612985565b9050919050565b60006020820190508181036000830152612e6e816129a8565b9050919050565b60006020820190508181036000830152612e8e816129cb565b9050919050565b60006020820190508181036000830152612eae816129ee565b9050919050565b60006020820190508181036000830152612ece81612a11565b9050919050565b60006020820190508181036000830152612eee81612a34565b9050919050565b60006020820190508181036000830152612f0e81612a57565b9050919050565b60006020820190508181036000830152612f2e81612a7a565b9050919050565b60006020820190508181036000830152612f4e81612a9d565b9050919050565b60006020820190508181036000830152612f6e81612ac0565b9050919050565b60006020820190508181036000830152612f8e81612ae3565b9050919050565b60006020820190508181036000830152612fae81612b06565b9050919050565b60006020820190508181036000830152612fce81612b29565b9050919050565b60006020820190508181036000830152612fee81612b4c565b9050919050565b6000602082019050818103600083015261300e81612b6f565b9050919050565b6000602082019050818103600083015261302e81612b92565b9050919050565b6000602082019050818103600083015261304e81612bb5565b9050919050565b6000602082019050818103600083015261306e81612bd8565b9050919050565b600060208201905061308a6000830184612bfb565b92915050565b600061309a6130ab565b90506130a682826132f3565b919050565b6000604051905090565b600067ffffffffffffffff8211156130d0576130cf61346b565b5b6130d98261349a565b9050602081019050919050565b60008190508160005260206000209050919050565b600081519050919050565b600081519050919050565b600082825260208201905092915050565b600082825260208201905092915050565b600081905092915050565b600061314982613275565b915061315483613275565b9250827fffffffffffffffffffffffffffffffffffffffffffffffffffffffffffffffff03821115613189576131886133de565b5b828201905092915050565b600061319f82613275565b91506131aa83613275565b9250826131ba576131b961340d565b5b828204905092915050565b60006131d082613275565b91506131db83613275565b9250828210156131ee576131ed6133de565b5b828203905092915050565b600061320482613255565b9050919050565b600061321682613255565b9050919050565b60008115159050919050565b60007fffffffff0000000000000000000000000000000000000000000000000000000082169050919050565b600073ffffffffffffffffffffffffffffffffffffffff82169050919050565b6000819050919050565b82818337600083830152505050565b60005b838110156132ac578082015181840152602081019050613291565b838111156132bb576000848401525b50505050565b600060028204905060018216806132d957607f821691505b602082108114156132ed576132ec61343c565b5b50919050565b6132fc8261349a565b810181811067ffffffffffffffff8211171561331b5761331a61346b565b5b80604052505050565b600061332f82613275565b91507fffffffffffffffffffffffffffffffffffffffffffffffffffffffffffffffff821415613362576133616133de565b5b600182019050919050565b600061337882613391565b9050919050565b600061338a82613391565b9050919050565b600061339c826134ab565b9050919050565b6000819050919050565b60006133b882613275565b91506133c383613275565b9250826133d3576133d261340d565b5b828206905092915050565b7f4e487b7100000000000000000000000000000000000000000000000000000000600052601160045260246000fd5b7f4e487b7100000000000000000000000000000000000000000000000000000000600052601260045260246000fd5b7f4e487b7100000000000000000000000000000000000000000000000000000000600052602260045260246000fd5b7f4e487b7100000000000000000000000000000000000000000000000000000000600052604160045260246000fd5b6000601f19601f8301169050919050565b60008160601b9050919050565b7f4552433732313a207472616e7366657220746f206e6f6e20455243373231526560008201527f63656976657220696d706c656d656e7465720000000000000000000000000000602082015250565b7f4f776e61626c653a206e6577206f776e657220697320746865207a65726f206160008201527f6464726573730000000000000000000000000000000000000000000000000000602082015250565b7f4552433732313a20746f6b656e20616c7265616479206d696e74656400000000600082015250565b7f43414e4e4f54204d494e54205448524f554748204120435553544f4d20434f4e60008201527f5452414354000000000000000000000000000000000000000000000000000000602082015250565b7f594f552043414e2754204d494e54204d4f5245205448414e204156414c41424c60008201527f4520544f4b454e20434f554e5400000000000000000000000000000000000000602082015250565b7f4552433732313a207472616e7366657220746f20746865207a65726f2061646460008201527f7265737300000000000000000000000000000000000000000000000000000000602082015250565b7f4552433732313a20617070726f766520746f2063616c6c657200000000000000600082015250565b7f4e6f206d6f726520746f6b656e7320617661696c61626c650000000000000000600082015250565b7f4552433732313a206f70657261746f7220717565727920666f72206e6f6e657860008201527f697374656e7420746f6b656e0000000000000000000000000000000000000000602082015250565b7f496e73756666696369656e7420466f756e647300000000000000000000000000600082015250565b7f4552433732313a20617070726f76652063616c6c6572206973206e6f74206f7760008201527f6e6572206e6f7220617070726f76656420666f7220616c6c0000000000000000602082015250565b7f4552433732313a2062616c616e636520717565727920666f7220746865207a6560008201527f726f206164647265737300000000000000000000000000000000000000000000602082015250565b7f4552433732313a206f776e657220717565727920666f72206e6f6e657869737460008201527f656e7420746f6b656e0000000000000000000000000000000000000000000000602082015250565b7f45524337323155524953746f726167653a2055524920736574206f66206e6f6e60008201527f6578697374656e7420746f6b656e000000000000000000000000000000000000602082015250565b7f594f552043414e2754204d494e54204d4f5245205448414e204d4158494d554d60008201527f20535550504c5900000000000000000000000000000000000000000000000000602082015250565b7f4552433732313a206d696e7420746f20746865207a65726f2061646472657373600082015250565b7f45524337323155524953746f726167653a2055524920717565727920666f722060008201527f6e6f6e6578697374656e7420746f6b656e000000000000000000000000000000602082015250565b7f4552433732313a20617070726f76656420717565727920666f72206e6f6e657860008201527f697374656e7420746f6b656e0000000000000000000000000000000000000000602082015250565b7f4f776e61626c653a2063616c6c6572206973206e6f7420746865206f776e6572600082015250565b7f4552433732313a207472616e73666572206f6620746f6b656e2074686174206960008201527f73206e6f74206f776e0000000000000000000000000000000000000000000000602082015250565b7f4552433732314d657461646174613a2055524920717565727920666f72206e6f60008201527f6e6578697374656e7420746f6b656e0000000000000000000000000000000000602082015250565b7f4552433732313a20617070726f76616c20746f2063757272656e74206f776e6560008201527f7200000000000000000000000000000000000000000000000000000000000000602082015250565b7f4552433732313a207472616e736665722063616c6c6572206973206e6f74206f60008201527f776e6572206e6f7220617070726f766564000000000000000000000000000000602082015250565b613af6816131f9565b8114613b0157600080fd5b50565b613b0d8161321d565b8114613b1857600080fd5b50565b613b2481613229565b8114613b2f57600080fd5b50565b613b3b81613275565b8114613b4657600080fd5b5056fea26469706673582212205b58a3e2a4f26b30c0469d2fde8c7c85784e48db83a511f2675ab1615f994d2764736f6c63430008040033",
  "linkReferences": {},
  "deployedLinkReferences": {}
}