{
  "_format": "hh-sol-artifact-1",
  "contractName": "SupacoinNFT",
  "sourceName": "contracts/SupacoinNFT.sol",
  "abi": [
    {
      "inputs": [
        {
          "internalType": "string",
          "name": "name",
          "type": "string"
        },
        {
          "internalType": "string",
          "name": "symbol",
          "type": "string"
        },
        {
          "internalType": "string",
          "name": "_tempURI",
          "type": "string"
        },
        {
          "internalType": "uint256",
          "name": "maxTokens",
          "type": "uint256"
        }
      ],
      "stateMutability": "payable",
      "type": "constructor"
    },
    {
      "anonymous": false,
      "inputs": [
        {
          "indexed": true,
          "internalType": "address",
          "name": "owner",
          "type": "address"
        },
        {
          "indexed": true,
          "internalType": "address",
          "name": "approved",
          "type": "address"
        },
        {
          "indexed": true,
          "internalType": "uint256",
          "name": "tokenId",
          "type": "uint256"
        }
      ],
      "name": "Approval",
      "type": "event"
    },
    {
      "anonymous": false,
      "inputs": [
        {
          "indexed": true,
          "internalType": "address",
          "name": "owner",
          "type": "address"
        },
        {
          "indexed": true,
          "internalType": "address",
          "name": "operator",
          "type": "address"
        },
        {
          "indexed": false,
          "internalType": "bool",
          "name": "approved",
          "type": "bool"
        }
      ],
      "name": "ApprovalForAll",
      "type": "event"
    },
    {
      "anonymous": false,
      "inputs": [
        {
          "indexed": false,
          "internalType": "address",
          "name": "sender",
          "type": "address"
        },
        {
          "indexed": false,
          "internalType": "uint256",
          "name": "tokenId",
          "type": "uint256"
        }
      ],
      "name": "NewSupacoinNFTMinted",
      "type": "event"
    },
    {
      "anonymous": false,
      "inputs": [
        {
          "indexed": true,
          "internalType": "address",
          "name": "from",
          "type": "address"
        },
        {
          "indexed": true,
          "internalType": "address",
          "name": "to",
          "type": "address"
        },
        {
          "indexed": true,
          "internalType": "uint256",
          "name": "tokenId",
          "type": "uint256"
        }
      ],
      "name": "Transfer",
      "type": "event"
    },
    {
      "inputs": [
        {
          "internalType": "address",
          "name": "to",
          "type": "address"
        },
        {
          "internalType": "uint256",
          "name": "tokenId",
          "type": "uint256"
        }
      ],
      "name": "approve",
      "outputs": [],
      "stateMutability": "nonpayable",
      "type": "function"
    },
    {
      "inputs": [
        {
          "internalType": "address",
          "name": "owner",
          "type": "address"
        }
      ],
      "name": "balanceOf",
      "outputs": [
        {
          "internalType": "uint256",
          "name": "",
          "type": "uint256"
        }
      ],
      "stateMutability": "view",
      "type": "function"
    },
    {
      "inputs": [
        {
          "internalType": "uint256",
          "name": "tokenId",
          "type": "uint256"
        }
      ],
      "name": "getApproved",
      "outputs": [
        {
          "internalType": "address",
          "name": "",
          "type": "address"
        }
      ],
      "stateMutability": "view",
      "type": "function"
    },
    {
      "inputs": [],
      "name": "getTotalNFTsMintedSoFar",
      "outputs": [
        {
          "internalType": "uint256",
          "name": "",
          "type": "uint256"
        }
      ],
      "stateMutability": "view",
      "type": "function"
    },
    {
      "inputs": [
        {
          "internalType": "address",
          "name": "owner",
          "type": "address"
        },
        {
          "internalType": "address",
          "name": "operator",
          "type": "address"
        }
      ],
      "name": "isApprovedForAll",
      "outputs": [
        {
          "internalType": "bool",
          "name": "",
          "type": "bool"
        }
      ],
      "stateMutability": "view",
      "type": "function"
    },
    {
      "inputs": [],
      "name": "makeAnSupacoinNFT",
      "outputs": [],
      "stateMutability": "nonpayable",
      "type": "function"
    },
    {
      "inputs": [],
      "name": "name",
      "outputs": [
        {
          "internalType": "string",
          "name": "",
          "type": "string"
        }
      ],
      "stateMutability": "view",
      "type": "function"
    },
    {
      "inputs": [
        {
          "internalType": "uint256",
          "name": "tokenId",
          "type": "uint256"
        }
      ],
      "name": "ownerOf",
      "outputs": [
        {
          "internalType": "address",
          "name": "",
          "type": "address"
        }
      ],
      "stateMutability": "view",
      "type": "function"
    },
    {
      "inputs": [
        {
          "internalType": "address",
          "name": "from",
          "type": "address"
        },
        {
          "internalType": "address",
          "name": "to",
          "type": "address"
        },
        {
          "internalType": "uint256",
          "name": "tokenId",
          "type": "uint256"
        }
      ],
      "name": "safeTransferFrom",
      "outputs": [],
      "stateMutability": "nonpayable",
      "type": "function"
    },
    {
      "inputs": [
        {
          "internalType": "address",
          "name": "from",
          "type": "address"
        },
        {
          "internalType": "address",
          "name": "to",
          "type": "address"
        },
        {
          "internalType": "uint256",
          "name": "tokenId",
          "type": "uint256"
        },
        {
          "internalType": "bytes",
          "name": "_data",
          "type": "bytes"
        }
      ],
      "name": "safeTransferFrom",
      "outputs": [],
      "stateMutability": "nonpayable",
      "type": "function"
    },
    {
      "inputs": [
        {
          "internalType": "address",
          "name": "operator",
          "type": "address"
        },
        {
          "internalType": "bool",
          "name": "approved",
          "type": "bool"
        }
      ],
      "name": "setApprovalForAll",
      "outputs": [],
      "stateMutability": "nonpayable",
      "type": "function"
    },
    {
      "inputs": [
        {
          "internalType": "bytes4",
          "name": "interfaceId",
          "type": "bytes4"
        }
      ],
      "name": "supportsInterface",
      "outputs": [
        {
          "internalType": "bool",
          "name": "",
          "type": "bool"
        }
      ],
      "stateMutability": "view",
      "type": "function"
    },
    {
      "inputs": [],
      "name": "symbol",
      "outputs": [
        {
          "internalType": "string",
          "name": "",
          "type": "string"
        }
      ],
      "stateMutability": "view",
      "type": "function"
    },
    {
      "inputs": [
        {
          "internalType": "uint256",
          "name": "tokenId",
          "type": "uint256"
        }
      ],
      "name": "tokenURI",
      "outputs": [
        {
          "internalType": "string",
          "name": "",
          "type": "string"
        }
      ],
      "stateMutability": "view",
      "type": "function"
    },
    {
      "inputs": [
        {
          "internalType": "address",
          "name": "from",
          "type": "address"
        },
        {
          "internalType": "address",
          "name": "to",
          "type": "address"
        },
        {
          "internalType": "uint256",
          "name": "tokenId",
          "type": "uint256"
        }
      ],
      "name": "transferFrom",
      "outputs": [],
      "stateMutability": "nonpayable",
      "type": "function"
    }
  ],
  "bytecode": "0x6080604052604051620035983803806200359883398181016040528101906200002991906200020b565b8383816000908051906020019062000043929190620000d2565b5080600190805190602001906200005c929190620000d2565b50505060016008600082825462000074919062000321565b9250508190555062000092600a620000bc60201b62000df11760201c565b81600b9080519060200190620000aa929190620000d2565b508060078190555050505050620004e2565b6001816000016000828254019250508190555050565b828054620000e090620003be565b90600052602060002090601f01602090048101928262000104576000855562000150565b82601f106200011f57805160ff191683800117855562000150565b8280016001018555821562000150579182015b828111156200014f57825182559160200191906001019062000132565b5b5090506200015f919062000163565b5090565b5b808211156200017e57600081600090555060010162000164565b5090565b6000620001996200019384620002eb565b620002c2565b905082815260208101848484011115620001b257600080fd5b620001bf84828562000388565b509392505050565b600082601f830112620001d957600080fd5b8151620001eb84826020860162000182565b91505092915050565b6000815190506200020581620004c8565b92915050565b600080600080608085870312156200022257600080fd5b600085015167ffffffffffffffff8111156200023d57600080fd5b6200024b87828801620001c7565b945050602085015167ffffffffffffffff8111156200026957600080fd5b6200027787828801620001c7565b935050604085015167ffffffffffffffff8111156200029557600080fd5b620002a387828801620001c7565b9250506060620002b687828801620001f4565b91505092959194509250565b6000620002ce620002e1565b9050620002dc8282620003f4565b919050565b6000604051905090565b600067ffffffffffffffff82111562000309576200030862000488565b5b6200031482620004b7565b9050602081019050919050565b60006200032e826200037e565b91506200033b836200037e565b9250827fffffffffffffffffffffffffffffffffffffffffffffffffffffffffffffffff038211156200037357620003726200042a565b5b828201905092915050565b6000819050919050565b60005b83811015620003a85780820151818401526020810190506200038b565b83811115620003b8576000848401525b50505050565b60006002820490506001821680620003d757607f821691505b60208210811415620003ee57620003ed62000459565b5b50919050565b620003ff82620004b7565b810181811067ffffffffffffffff8211171562000421576200042062000488565b5b80604052505050565b7f4e487b7100000000000000000000000000000000000000000000000000000000600052601160045260246000fd5b7f4e487b7100000000000000000000000000000000000000000000000000000000600052602260045260246000fd5b7f4e487b7100000000000000000000000000000000000000000000000000000000600052604160045260246000fd5b6000601f19601f8301169050919050565b620004d3816200037e565b8114620004df57600080fd5b50565b6130a680620004f26000396000f3fe608060405234801561001057600080fd5b50600436106100f55760003560e01c80636352211e11610097578063a22cb46511610066578063a22cb46514610272578063b88d4fde1461028e578063c87b56dd146102aa578063e985e9c5146102da576100f5565b80636352211e146101ea57806370a082311461021a57806395d89b411461024a5780639f47f84314610268576100f5565b8063081812fc116100d3578063081812fc14610166578063095ea7b31461019657806323b872dd146101b257806342842e0e146101ce576100f5565b806301ffc9a7146100fa578063060475901461012a57806306fdde0314610148575b600080fd5b610114600480360381019061010f9190611fcb565b61030a565b60405161012191906124e3565b60405180910390f35b6101326103ec565b60405161013f9190612760565b60405180910390f35b610150610407565b60405161015d91906124fe565b60405180910390f35b610180600480360381019061017b919061201d565b610499565b60405161018d9190612453565b60405180910390f35b6101b060048036038101906101ab9190611f8f565b61051e565b005b6101cc60048036038101906101c79190611e89565b610636565b005b6101e860048036038101906101e39190611e89565b610696565b005b61020460048036038101906101ff919061201d565b6106b6565b6040516102119190612453565b60405180910390f35b610234600480360381019061022f9190611e24565b610768565b6040516102419190612760565b60405180910390f35b610252610820565b60405161025f91906124fe565b60405180910390f35b6102706108b2565b005b61028c60048036038101906102879190611f53565b610a28565b005b6102a860048036038101906102a39190611ed8565b610ba9565b005b6102c460048036038101906102bf919061201d565b610c0b565b6040516102d191906124fe565b60405180910390f35b6102f460048036038101906102ef9190611e4d565b610d5d565b60405161030191906124e3565b60405180910390f35b60007f80ac58cd000000000000000000000000000000000000000000000000000000007bffffffffffffffffffffffffffffffffffffffffffffffffffffffff1916827bffffffffffffffffffffffffffffffffffffffffffffffffffffffff191614806103d557507f5b5e139f000000000000000000000000000000000000000000000000000000007bffffffffffffffffffffffffffffffffffffffffffffffffffffffff1916827bffffffffffffffffffffffffffffffffffffffffffffffffffffffff1916145b806103e557506103e482610e07565b5b9050919050565b60008060016008546103fe91906128b0565b90508091505090565b6060600080546104169061299a565b80601f01602080910402602001604051908101604052809291908181526020018280546104429061299a565b801561048f5780601f106104645761010080835404028352916020019161048f565b820191906000526020600020905b81548152906001019060200180831161047257829003601f168201915b5050505050905090565b60006104a482610e71565b6104e3576040517f08c379a00000000000000000000000000000000000000000000000000000000081526004016104da906126c0565b60405180910390fd5b6004600083815260200190815260200160002060009054906101000a900473ffffffffffffffffffffffffffffffffffffffff169050919050565b6000610529826106b6565b90508073ffffffffffffffffffffffffffffffffffffffff168373ffffffffffffffffffffffffffffffffffffffff16141561059a576040517f08c379a000000000000000000000000000000000000000000000000000000000815260040161059190612720565b60405180910390fd5b8073ffffffffffffffffffffffffffffffffffffffff166105b9610edd565b73ffffffffffffffffffffffffffffffffffffffff1614806105e857506105e7816105e2610edd565b610d5d565b5b610627576040517f08c379a000000000000000000000000000000000000000000000000000000000815260040161061e90612600565b60405180910390fd5b6106318383610ee5565b505050565b610647610641610edd565b82610f9e565b610686576040517f08c379a000000000000000000000000000000000000000000000000000000000815260040161067d90612740565b60405180910390fd5b61069183838361107c565b505050565b6106b183838360405180602001604052806000815250610ba9565b505050565b6000806002600084815260200190815260200160002060009054906101000a900473ffffffffffffffffffffffffffffffffffffffff169050600073ffffffffffffffffffffffffffffffffffffffff168173ffffffffffffffffffffffffffffffffffffffff16141561075f576040517f08c379a000000000000000000000000000000000000000000000000000000000815260040161075690612640565b60405180910390fd5b80915050919050565b60008073ffffffffffffffffffffffffffffffffffffffff168273ffffffffffffffffffffffffffffffffffffffff1614156107d9576040517f08c379a00000000000000000000000000000000000000000000000000000000081526004016107d090612620565b60405180910390fd5b600360008373ffffffffffffffffffffffffffffffffffffffff1673ffffffffffffffffffffffffffffffffffffffff168152602001908152602001600020549050919050565b60606001805461082f9061299a565b80601f016020809104026020016040519081016040528092919081815260200182805461085b9061299a565b80156108a85780601f1061087d576101008083540402835291602001916108a8565b820191906000526020600020905b81548152906001019060200180831161088b57829003601f168201915b5050505050905090565b600065fea89489800090506007546008541115610904576040517f08c379a00000000000000000000000000000000000000000000000000000000081526004016108fb90612540565b60405180910390fd5b803373ffffffffffffffffffffffffffffffffffffffff1631101561095e576040517f08c379a0000000000000000000000000000000000000000000000000000000008152600401610955906125e0565b60405180910390fd5b600061096a600a6112d8565b90506000600b610979836112e6565b60405160200161098a92919061242f565b604051602081830303815290604052905080600990805190602001906109b1929190611cb0565b506109bc338361157f565b6109c6828261159d565b6109d0600a610df1565b6001600860008282546109e39190612829565b925050819055507f8fa53186a3712675fe7a143e8a8adcbe79575c6cb92ef817f321e3b9aa0d06d33383604051610a1b9291906124ba565b60405180910390a1505050565b610a30610edd565b73ffffffffffffffffffffffffffffffffffffffff168273ffffffffffffffffffffffffffffffffffffffff161415610a9e576040517f08c379a0000000000000000000000000000000000000000000000000000000008152600401610a95906125a0565b60405180910390fd5b8060056000610aab610edd565b73ffffffffffffffffffffffffffffffffffffffff1673ffffffffffffffffffffffffffffffffffffffff16815260200190815260200160002060008473ffffffffffffffffffffffffffffffffffffffff1673ffffffffffffffffffffffffffffffffffffffff16815260200190815260200160002060006101000a81548160ff0219169083151502179055508173ffffffffffffffffffffffffffffffffffffffff16610b58610edd565b73ffffffffffffffffffffffffffffffffffffffff167f17307eab39ab6107e8899845ad3d59bd9653f200f220920489ca2b5937696c3183604051610b9d91906124e3565b60405180910390a35050565b610bba610bb4610edd565b83610f9e565b610bf9576040517f08c379a0000000000000000000000000000000000000000000000000000000008152600401610bf090612740565b60405180910390fd5b610c0584848484611611565b50505050565b6060610c1682610e71565b610c55576040517f08c379a0000000000000000000000000000000000000000000000000000000008152600401610c4c906126a0565b60405180910390fd5b6000600660008481526020019081526020016000208054610c759061299a565b80601f0160208091040260200160405190810160405280929190818152602001828054610ca19061299a565b8015610cee5780601f10610cc357610100808354040283529160200191610cee565b820191906000526020600020905b815481529060010190602001808311610cd157829003601f168201915b505050505090506000610cff61166d565b9050600081511415610d15578192505050610d58565b600082511115610d4a578082604051602001610d3292919061240b565b60405160208183030381529060405292505050610d58565b610d5384611684565b925050505b919050565b6000600560008473ffffffffffffffffffffffffffffffffffffffff1673ffffffffffffffffffffffffffffffffffffffff16815260200190815260200160002060008373ffffffffffffffffffffffffffffffffffffffff1673ffffffffffffffffffffffffffffffffffffffff16815260200190815260200160002060009054906101000a900460ff16905092915050565b6001816000016000828254019250508190555050565b60007f01ffc9a7000000000000000000000000000000000000000000000000000000007bffffffffffffffffffffffffffffffffffffffffffffffffffffffff1916827bffffffffffffffffffffffffffffffffffffffffffffffffffffffff1916149050919050565b60008073ffffffffffffffffffffffffffffffffffffffff166002600084815260200190815260200160002060009054906101000a900473ffffffffffffffffffffffffffffffffffffffff1673ffffffffffffffffffffffffffffffffffffffff1614159050919050565b600033905090565b816004600083815260200190815260200160002060006101000a81548173ffffffffffffffffffffffffffffffffffffffff021916908373ffffffffffffffffffffffffffffffffffffffff160217905550808273ffffffffffffffffffffffffffffffffffffffff16610f58836106b6565b73ffffffffffffffffffffffffffffffffffffffff167f8c5be1e5ebec7d5bd14f71427d1e84f3dd0314c0f7b2291e5b200ac8c7c3b92560405160405180910390a45050565b6000610fa982610e71565b610fe8576040517f08c379a0000000000000000000000000000000000000000000000000000000008152600401610fdf906125c0565b60405180910390fd5b6000610ff3836106b6565b90508073ffffffffffffffffffffffffffffffffffffffff168473ffffffffffffffffffffffffffffffffffffffff16148061106257508373ffffffffffffffffffffffffffffffffffffffff1661104a84610499565b73ffffffffffffffffffffffffffffffffffffffff16145b8061107357506110728185610d5d565b5b91505092915050565b8273ffffffffffffffffffffffffffffffffffffffff1661109c826106b6565b73ffffffffffffffffffffffffffffffffffffffff16146110f2576040517f08c379a00000000000000000000000000000000000000000000000000000000081526004016110e9906126e0565b60405180910390fd5b600073ffffffffffffffffffffffffffffffffffffffff168273ffffffffffffffffffffffffffffffffffffffff161415611162576040517f08c379a000000000000000000000000000000000000000000000000000000000815260040161115990612580565b60405180910390fd5b61116d83838361172b565b611178600082610ee5565b6001600360008573ffffffffffffffffffffffffffffffffffffffff1673ffffffffffffffffffffffffffffffffffffffff16815260200190815260200160002060008282546111c891906128b0565b925050819055506001600360008473ffffffffffffffffffffffffffffffffffffffff1673ffffffffffffffffffffffffffffffffffffffff168152602001908152602001600020600082825461121f9190612829565b92505081905550816002600083815260200190815260200160002060006101000a81548173ffffffffffffffffffffffffffffffffffffffff021916908373ffffffffffffffffffffffffffffffffffffffff160217905550808273ffffffffffffffffffffffffffffffffffffffff168473ffffffffffffffffffffffffffffffffffffffff167fddf252ad1be2c89b69c2b068fc378daa952ba7f163c4a11628f55a4df523b3ef60405160405180910390a4505050565b600081600001549050919050565b606060006064905060008167ffffffffffffffff811115611330577f4e487b7100000000000000000000000000000000000000000000000000000000600052604160045260246000fd5b6040519080825280601f01601f1916602001820160405280156113625781602001600182028036833780820191505090505b50905060005b6000851461141a576000600a8661137f9190612a46565b9050600a8661138e919061287f565b955080603061139d9190612829565b60f81b8383806113ac906129fd565b9450815181106113e5577f4e487b7100000000000000000000000000000000000000000000000000000000600052603260045260246000fd5b60200101907effffffffffffffffffffffffffffffffffffffffffffffffffffffffffffff1916908160001a90535050611368565b60008167ffffffffffffffff81111561145c577f4e487b7100000000000000000000000000000000000000000000000000000000600052604160045260246000fd5b6040519080825280601f01601f19166020018201604052801561148e5781602001600182028036833780820191505090505b50905060005b828110156115725783816001856114ab91906128b0565b6114b591906128b0565b815181106114ec577f4e487b7100000000000000000000000000000000000000000000000000000000600052603260045260246000fd5b602001015160f81c60f81b828281518110611530577f4e487b7100000000000000000000000000000000000000000000000000000000600052603260045260246000fd5b60200101907effffffffffffffffffffffffffffffffffffffffffffffffffffffffffffff1916908160001a905350808061156a906129fd565b915050611494565b5080945050505050919050565b611599828260405180602001604052806000815250611730565b5050565b6115a682610e71565b6115e5576040517f08c379a00000000000000000000000000000000000000000000000000000000081526004016115dc90612660565b60405180910390fd5b8060066000848152602001908152602001600020908051906020019061160c929190611cb0565b505050565b61161c84848461107c565b6116288484848461178b565b611667576040517f08c379a000000000000000000000000000000000000000000000000000000000815260040161165e90612520565b60405180910390fd5b50505050565b606060405180602001604052806000815250905090565b606061168f82610e71565b6116ce576040517f08c379a00000000000000000000000000000000000000000000000000000000081526004016116c590612700565b60405180910390fd5b60006116d861166d565b905060008151116116f85760405180602001604052806000815250611723565b8061170284611922565b60405160200161171392919061240b565b6040516020818303038152906040525b915050919050565b505050565b61173a8383611acf565b611747600084848461178b565b611786576040517f08c379a000000000000000000000000000000000000000000000000000000000815260040161177d90612520565b60405180910390fd5b505050565b60006117ac8473ffffffffffffffffffffffffffffffffffffffff16611c9d565b15611915578373ffffffffffffffffffffffffffffffffffffffff1663150b7a026117d5610edd565b8786866040518563ffffffff1660e01b81526004016117f7949392919061246e565b602060405180830381600087803b15801561181157600080fd5b505af192505050801561184257506040513d601f19601f8201168201806040525081019061183f9190611ff4565b60015b6118c5573d8060008114611872576040519150601f19603f3d011682016040523d82523d6000602084013e611877565b606091505b506000815114156118bd576040517f08c379a00000000000000000000000000000000000000000000000000000000081526004016118b490612520565b60405180910390fd5b805181602001fd5b63150b7a0260e01b7bffffffffffffffffffffffffffffffffffffffffffffffffffffffff1916817bffffffffffffffffffffffffffffffffffffffffffffffffffffffff19161491505061191a565b600190505b949350505050565b6060600082141561196a576040518060400160405280600181526020017f30000000000000000000000000000000000000000000000000000000000000008152509050611aca565b600082905060005b6000821461199c578080611985906129fd565b915050600a82611995919061287f565b9150611972565b60008167ffffffffffffffff8111156119de577f4e487b7100000000000000000000000000000000000000000000000000000000600052604160045260246000fd5b6040519080825280601f01601f191660200182016040528015611a105781602001600182028036833780820191505090505b5090505b60008514611ac357600182611a2991906128b0565b9150600a85611a389190612a46565b6030611a449190612829565b60f81b818381518110611a80577f4e487b7100000000000000000000000000000000000000000000000000000000600052603260045260246000fd5b60200101907effffffffffffffffffffffffffffffffffffffffffffffffffffffffffffff1916908160001a905350600a85611abc919061287f565b9450611a14565b8093505050505b919050565b600073ffffffffffffffffffffffffffffffffffffffff168273ffffffffffffffffffffffffffffffffffffffff161415611b3f576040517f08c379a0000000000000000000000000000000000000000000000000000000008152600401611b3690612680565b60405180910390fd5b611b4881610e71565b15611b88576040517f08c379a0000000000000000000000000000000000000000000000000000000008152600401611b7f90612560565b60405180910390fd5b611b946000838361172b565b6001600360008473ffffffffffffffffffffffffffffffffffffffff1673ffffffffffffffffffffffffffffffffffffffff1681526020019081526020016000206000828254611be49190612829565b92505081905550816002600083815260200190815260200160002060006101000a81548173ffffffffffffffffffffffffffffffffffffffff021916908373ffffffffffffffffffffffffffffffffffffffff160217905550808273ffffffffffffffffffffffffffffffffffffffff16600073ffffffffffffffffffffffffffffffffffffffff167fddf252ad1be2c89b69c2b068fc378daa952ba7f163c4a11628f55a4df523b3ef60405160405180910390a45050565b600080823b905060008111915050919050565b828054611cbc9061299a565b90600052602060002090601f016020900481019282611cde5760008555611d25565b82601f10611cf757805160ff1916838001178555611d25565b82800160010185558215611d25579182015b82811115611d24578251825591602001919060010190611d09565b5b509050611d329190611d36565b5090565b5b80821115611d4f576000816000905550600101611d37565b5090565b6000611d66611d61846127a0565b61277b565b905082815260208101848484011115611d7e57600080fd5b611d89848285612958565b509392505050565b600081359050611da081613014565b92915050565b600081359050611db58161302b565b92915050565b600081359050611dca81613042565b92915050565b600081519050611ddf81613042565b92915050565b600082601f830112611df657600080fd5b8135611e06848260208601611d53565b91505092915050565b600081359050611e1e81613059565b92915050565b600060208284031215611e3657600080fd5b6000611e4484828501611d91565b91505092915050565b60008060408385031215611e6057600080fd5b6000611e6e85828601611d91565b9250506020611e7f85828601611d91565b9150509250929050565b600080600060608486031215611e9e57600080fd5b6000611eac86828701611d91565b9350506020611ebd86828701611d91565b9250506040611ece86828701611e0f565b9150509250925092565b60008060008060808587031215611eee57600080fd5b6000611efc87828801611d91565b9450506020611f0d87828801611d91565b9350506040611f1e87828801611e0f565b925050606085013567ffffffffffffffff811115611f3b57600080fd5b611f4787828801611de5565b91505092959194509250565b60008060408385031215611f6657600080fd5b6000611f7485828601611d91565b9250506020611f8585828601611da6565b9150509250929050565b60008060408385031215611fa257600080fd5b6000611fb085828601611d91565b9250506020611fc185828601611e0f565b9150509250929050565b600060208284031215611fdd57600080fd5b6000611feb84828501611dbb565b91505092915050565b60006020828403121561200657600080fd5b600061201484828501611dd0565b91505092915050565b60006020828403121561202f57600080fd5b600061203d84828501611e0f565b91505092915050565b61204f816128e4565b82525050565b61205e816128f6565b82525050565b600061206f826127e6565b61207981856127fc565b9350612089818560208601612967565b61209281612b33565b840191505092915050565b60006120a8826127f1565b6120b2818561280d565b93506120c2818560208601612967565b6120cb81612b33565b840191505092915050565b60006120e1826127f1565b6120eb818561281e565b93506120fb818560208601612967565b80840191505092915050565b600081546121148161299a565b61211e818661281e565b94506001821660008114612139576001811461214a5761217d565b60ff1983168652818601935061217d565b612153856127d1565b60005b8381101561217557815481890152600182019150602081019050612156565b838801955050505b50505092915050565b600061219360328361280d565b915061219e82612b44565b604082019050919050565b60006121b660088361280d565b91506121c182612b93565b602082019050919050565b60006121d9601c8361280d565b91506121e482612bbc565b602082019050919050565b60006121fc60248361280d565b915061220782612be5565b604082019050919050565b600061221f60198361280d565b915061222a82612c34565b602082019050919050565b6000612242602c8361280d565b915061224d82612c5d565b604082019050919050565b600061226560138361280d565b915061227082612cac565b602082019050919050565b600061228860388361280d565b915061229382612cd5565b604082019050919050565b60006122ab602a8361280d565b91506122b682612d24565b604082019050919050565b60006122ce60298361280d565b91506122d982612d73565b604082019050919050565b60006122f1602e8361280d565b91506122fc82612dc2565b604082019050919050565b600061231460208361280d565b915061231f82612e11565b602082019050919050565b600061233760318361280d565b915061234282612e3a565b604082019050919050565b600061235a602c8361280d565b915061236582612e89565b604082019050919050565b600061237d60298361280d565b915061238882612ed8565b604082019050919050565b60006123a0602f8361280d565b91506123ab82612f27565b604082019050919050565b60006123c360218361280d565b91506123ce82612f76565b604082019050919050565b60006123e660318361280d565b91506123f182612fc5565b604082019050919050565b6124058161294e565b82525050565b600061241782856120d6565b915061242382846120d6565b91508190509392505050565b600061243b8285612107565b915061244782846120d6565b91508190509392505050565b60006020820190506124686000830184612046565b92915050565b60006080820190506124836000830187612046565b6124906020830186612046565b61249d60408301856123fc565b81810360608301526124af8184612064565b905095945050505050565b60006040820190506124cf6000830185612046565b6124dc60208301846123fc565b9392505050565b60006020820190506124f86000830184612055565b92915050565b60006020820190508181036000830152612518818461209d565b905092915050565b6000602082019050818103600083015261253981612186565b9050919050565b60006020820190508181036000830152612559816121a9565b9050919050565b60006020820190508181036000830152612579816121cc565b9050919050565b60006020820190508181036000830152612599816121ef565b9050919050565b600060208201905081810360008301526125b981612212565b9050919050565b600060208201905081810360008301526125d981612235565b9050919050565b600060208201905081810360008301526125f981612258565b9050919050565b600060208201905081810360008301526126198161227b565b9050919050565b600060208201905081810360008301526126398161229e565b9050919050565b60006020820190508181036000830152612659816122c1565b9050919050565b60006020820190508181036000830152612679816122e4565b9050919050565b6000602082019050818103600083015261269981612307565b9050919050565b600060208201905081810360008301526126b98161232a565b9050919050565b600060208201905081810360008301526126d98161234d565b9050919050565b600060208201905081810360008301526126f981612370565b9050919050565b6000602082019050818103600083015261271981612393565b9050919050565b60006020820190508181036000830152612739816123b6565b9050919050565b60006020820190508181036000830152612759816123d9565b9050919050565b600060208201905061277560008301846123fc565b92915050565b6000612785612796565b905061279182826129cc565b919050565b6000604051905090565b600067ffffffffffffffff8211156127bb576127ba612b04565b5b6127c482612b33565b9050602081019050919050565b60008190508160005260206000209050919050565b600081519050919050565b600081519050919050565b600082825260208201905092915050565b600082825260208201905092915050565b600081905092915050565b60006128348261294e565b915061283f8361294e565b9250827fffffffffffffffffffffffffffffffffffffffffffffffffffffffffffffffff0382111561287457612873612a77565b5b828201905092915050565b600061288a8261294e565b91506128958361294e565b9250826128a5576128a4612aa6565b5b828204905092915050565b60006128bb8261294e565b91506128c68361294e565b9250828210156128d9576128d8612a77565b5b828203905092915050565b60006128ef8261292e565b9050919050565b60008115159050919050565b60007fffffffff0000000000000000000000000000000000000000000000000000000082169050919050565b600073ffffffffffffffffffffffffffffffffffffffff82169050919050565b6000819050919050565b82818337600083830152505050565b60005b8381101561298557808201518184015260208101905061296a565b83811115612994576000848401525b50505050565b600060028204905060018216806129b257607f821691505b602082108114156129c6576129c5612ad5565b5b50919050565b6129d582612b33565b810181811067ffffffffffffffff821117156129f4576129f3612b04565b5b80604052505050565b6000612a088261294e565b91507fffffffffffffffffffffffffffffffffffffffffffffffffffffffffffffffff821415612a3b57612a3a612a77565b5b600182019050919050565b6000612a518261294e565b9150612a5c8361294e565b925082612a6c57612a6b612aa6565b5b828206905092915050565b7f4e487b7100000000000000000000000000000000000000000000000000000000600052601160045260246000fd5b7f4e487b7100000000000000000000000000000000000000000000000000000000600052601260045260246000fd5b7f4e487b7100000000000000000000000000000000000000000000000000000000600052602260045260246000fd5b7f4e487b7100000000000000000000000000000000000000000000000000000000600052604160045260246000fd5b6000601f19601f8301169050919050565b7f4552433732313a207472616e7366657220746f206e6f6e20455243373231526560008201527f63656976657220696d706c656d656e7465720000000000000000000000000000602082015250565b7f536f6c64204f7574000000000000000000000000000000000000000000000000600082015250565b7f4552433732313a20746f6b656e20616c7265616479206d696e74656400000000600082015250565b7f4552433732313a207472616e7366657220746f20746865207a65726f2061646460008201527f7265737300000000000000000000000000000000000000000000000000000000602082015250565b7f4552433732313a20617070726f766520746f2063616c6c657200000000000000600082015250565b7f4552433732313a206f70657261746f7220717565727920666f72206e6f6e657860008201527f697374656e7420746f6b656e0000000000000000000000000000000000000000602082015250565b7f496e73756666696369656e7420466f756e647300000000000000000000000000600082015250565b7f4552433732313a20617070726f76652063616c6c6572206973206e6f74206f7760008201527f6e6572206e6f7220617070726f76656420666f7220616c6c0000000000000000602082015250565b7f4552433732313a2062616c616e636520717565727920666f7220746865207a6560008201527f726f206164647265737300000000000000000000000000000000000000000000602082015250565b7f4552433732313a206f776e657220717565727920666f72206e6f6e657869737460008201527f656e7420746f6b656e0000000000000000000000000000000000000000000000602082015250565b7f45524337323155524953746f726167653a2055524920736574206f66206e6f6e60008201527f6578697374656e7420746f6b656e000000000000000000000000000000000000602082015250565b7f4552433732313a206d696e7420746f20746865207a65726f2061646472657373600082015250565b7f45524337323155524953746f726167653a2055524920717565727920666f722060008201527f6e6f6e6578697374656e7420746f6b656e000000000000000000000000000000602082015250565b7f4552433732313a20617070726f76656420717565727920666f72206e6f6e657860008201527f697374656e7420746f6b656e0000000000000000000000000000000000000000602082015250565b7f4552433732313a207472616e73666572206f6620746f6b656e2074686174206960008201527f73206e6f74206f776e0000000000000000000000000000000000000000000000602082015250565b7f4552433732314d657461646174613a2055524920717565727920666f72206e6f60008201527f6e6578697374656e7420746f6b656e0000000000000000000000000000000000602082015250565b7f4552433732313a20617070726f76616c20746f2063757272656e74206f776e6560008201527f7200000000000000000000000000000000000000000000000000000000000000602082015250565b7f4552433732313a207472616e736665722063616c6c6572206973206e6f74206f60008201527f776e6572206e6f7220617070726f766564000000000000000000000000000000602082015250565b61301d816128e4565b811461302857600080fd5b50565b613034816128f6565b811461303f57600080fd5b50565b61304b81612902565b811461305657600080fd5b50565b6130628161294e565b811461306d57600080fd5b5056fea2646970667358221220a47b7d9a977d5d780370648d15e3ddb3f91cc5a9a39023ef03aca4d8a423352a64736f6c63430008040033",
  "linkReferences": {},
  "deployedLinkReferences": {}
}